:100000000C942D030C9474030C9474030C947403DB
:100010000C9474030C9474030C9474030C94740384
:100020000C9474030C9474030C947D260C94502748
:100030000C9429210C9474030C9474030C94740391
:100040000C9474030C9474030C9474030C94740354
:100050000C9474030C9494210C9474030C94740306
:100060000C9474030C9474030C9474030C94740334
:100070000C9474030C9474030C9474030C94740324
:100080000C9474030C9474030C9474030C94740314
:100090000C9474030C9474030C9474030C94740304
:1000A0000C9474030C9474030C94740329001F00C3
:1000B00021002300250027002E004A001E002000FA
:1000C0002200240026002D002A0000002B001A0028
:1000D00015001C000C001300300000001400080084
:1000E0001700180012002F000151010039001600FE
:1000F00009000B000E00330032004C000400070022
:100100000A000D000F00340028004D00E1001D0022
:100110000600050010003700E500025164001B00D6
:10012000190011003600380052004F00E000E300D3
:10013000E2002C00E60001005000510035003B00B9
:100140003D003F00410043004500A7003A003C004D
:100150003E00400042004400010000000100BD00DC
:100160000100010001000100010000000100010088
:100170000100010001000100010001000100BE00BA
:1001800001000100010001000100A60001000100C2
:1001900001000100010001000100A500E1000100D3
:1001A0000100010001000100010001000100010047
:1001B0000100010001000100A900AE00E000E30021
:1001C000E2000100E6000100A800AA000100CE5CE8
:1001D000D05CD25CD45C010001000100CD5CCF5C3E
:1001E000D15CD35CD55C0100010000000100C35C60
:1001F000C55CC75CC95C010001000000C25CC45C56
:10020000C65CC85CCA5C010001000100010001007D
:1002100001000100010001000100010001000100D6
:1002200001000100010001000100010001000100C6
:1002300001000100010001000100010001000100B6
:1002400001000100010001000100010001000100A6
:100250000100010001000100010001000000000098
:10026000000000002A2B2800000000000000000011
:100270000000000000000029000000002C1E3420B7
:10028000212224342627252E362D3738271E1F20DD
:100290002122232425263333362E37381F04050622
:1002A0000708090A0B0C0D0E0F1011121314151666
:1002B0001718191A1B1C1D2F3130232D3504050664
:1002C0000708090A0B0C0D0E0F1011121314151646
:1002D0001718191A1B1C1D2F3130354C0000000057
:1002E000000000000000000000000000000000000E
:1002F00000000000000000000000000000000000FE
:100300007E0F00D4FFFFFFC70000007800047F3F8E
:100310001F643214643214783C1E1E140A05222312
:10032000252628292A2C2D2F3032333536383A3BD2
:100330003D3E4042434547494A4C4E505153555724
:10034000595A5C5E6062646668696B6D6F71737543
:1003500077797B7D7F81838587898A8C8E90929443
:1003600096989A9C9E9FA1A3A5A7A8AAACAEAFB150
:10037000B3B4B6B8B9BBBCBEBFC1C2C3C5C6C7C99A
:10038000CACBCCCDCED0D1D2D2D3D4D5D6D7D7D854
:10039000D9D9DADADBDBDBDCDCDCDCDCDDDDDDDDA6
:1003A000DCDCDCDCDCDBDBDBDADAD9D9D8D7D7D6AE
:1003B000D5D4D3D2D2D1D0CECDCCCBCAC9C7C6C565
:1003C000C3C2C1BFBEBCBBB9B8B6B4B3B1AFAEACAB
:1003D000AAA8A7A5A3A19F9E9C9A98969492908E56
:1003E0008C8A89878583817F7D7B79777573716F2F
:1003F0006D6B6968666462605E5C5A59575553510B
:10040000504E4C4A4947454342403E3D3B3A3836C0
:10041000353332302F2D2C2A292826252322FFAAD6
:100420007F554000010101010101010101020202A9
:100430000202020202020303030303030303040490
:10044000040404040405050505050606060606075A
:100450000707070708080808090909090A0A0A0B13
:100460000B0B0C0C0C0D0D0D0E0E0E0F0F0F1010B4
:10047000111111121213131414151516161717183B
:100480001819191A1A1B1B1C1D1D1E1E1F202021A6
:100490002222232424252626272829292A2B2C2DED
:1004A0002D2E2F30313232333435363738393A3B0E
:1004B0003C3D3E3F404142434445464748494A4C03
:1004C0004D4E4F50515354555658595A5B5D5E5FCF
:1004D000616264656668696B6C6D6F707273757765
:1004E000787A7B7D7E8082838587888A8C8E8F91C7
:1004F000939596989A9C9EA0A2A3A5A7A9ABADAFF1
:10050000B1B3B5B7BABCBEC0C2C4C6C9CBCDCFD1DA
:10051000D4D6D8DBDDDFE2E4E7E9EBEEF0F3F5F883
:10052000FAFDFF1C034D0069006700750065006C53
:100530000069006F00200052006F0063006B000034
:100540000012034D0069006700750065006C0069CA
:10055000006F0000000403090409025B00030100AE
:10056000A0FA0904000001030101000921110100A2
:10057000012240000705810308000A090401000266
:100580000300000009211101000122220007058259
:1005900003200001070503032000010904020001F4
:1005A0000300000009211101000122320007058427
:1005B0000320000A1201000200000008474D03005A
:1005C0000100010200010660FF0961A10109621535
:1005D0000026FF009520750881020963150026FF9B
:1005E00000952075089102C005010980A1018503CD
:1005F00019012AB700150126B70095017510810071
:10060000C0050C0901A101850419012AA0021501E8
:1006100026A002950175108100C005010906A101FF
:10062000050719E029E715002501950875018102E4
:100630009501750881010507190029FF150026FF9E
:1006400000950675088100050819012905950575AD
:10065000019102950175039101C011241FBECFEFD6
:10066000DAE0DEBFCDBF04B603FE27C08091BF0233
:100670009091C002A091C102B091C2028730904B0C
:10068000A740B04BD1F41092BF021092C00210925A
:10069000C1021092C20214BE84B7877F84BF0FB616
:1006A000F894A89580916000886180936000109212
:1006B00060000FBEE0E0F8E3099511E0A0E0B1E0D2
:1006C000E4E9F4E502C005900D92A63CB107D9F724
:1006D00022E0A6ECB1E001C01D92AF3BB207E1F70A
:1006E0000E94F1120C94EC290C94000081E0089512
:1006F00081E008950C94780308950C947C031F9373
:10070000CF93DF9300D000D00F92CDB7DEB74983EF
:100710005A836B833091C80189819A8131111DC040
:100720006623B9F02223A9F00E946B09182F682FC5
:1007300089819A810E94150969817A81812F0F90A0
:100740000F900F900F900F90DF91CF911F910C940D
:10075000A41D0E944209182FEFCF0E946B096981E6
:100760007A81EDCFFC01262F408151816281738116
:1007700084810C947F0381E00895CF93DF93D82F79
:10078000C92F60E00E94B2036D2F7C2FDF91CF91C3
:100790000C947D03E1E0F0E0DF0102C0AA0FBB1F73
:1007A0006A95E2F7BD01DF0102C0AA0FBB1F4A959F
:1007B000E2F76A2B01C0EE0F2A95EAF7962F9823ED
:1007C000961302C08E2B0895E0958E230895242F52
:1007D000462F682F8091E4010E94CA030C94D2082E
:1007E0000E9490110E943F050C94AB110C94AE1125
:1007F00008950E9460080E94F8032FEF84E39CE0B4
:10080000215080409040E1F700C000000C94B821D6
:100810000F931F93CF93DF938C0161E00E94B2038B
:10082000EC01B8010E94321B882309F441C0B801D1
:10083000CE010E947A038823D9F1B801CE010E942B
:10084000E41E8823A9F1B801CE010E94391F882334
:1008500079F1B801CE010E940C20882349F1B8013A
:10086000CE010E94221A882319F1F801828188237F
:1008700061F0CA35FDE5DF0721F170F4C115ECE543
:10088000DE07A1F0CE3DDC45C9F0C801DF91CF9174
:100890001F910F910C947603CB358DE5D807A1F00D
:1008A000CC35DD4591F70E942B0DEFCF0E94F90367
:1008B00080E0DF91CF911F910F9108950E94A40EC7
:1008C000F7CF0E94340DE1CF0E94370DDECFDF92CB
:1008D000EF92FF920F931F93CF93DF93E82FF0E0F7
:1008E000E45AFD4FD490282F26952695269530E082
:1008F000F901E450FD4F0491877010E0082E02C00A
:10090000159507950A94E2F701701127F901E45152
:10091000FD4FE490F12C082E02C0F594E7940A9460
:10092000E2F791E0E922FF24F901E452FD4FC4917E
:10093000D0E002C0D595C7958A95E2F7C170DD2752
:100940000115110519F081EE0E948A05E114F104E8
:1009500019F086EE0E948A058D2D0E940D06EF2863
:1009600019F086EE0E94CE05012B19F081EE0E944F
:10097000CE05CD2B51F08CE2DF91CF911F910F91DD
:10098000FF90EF90DF900C940D06DF91CF911F91B7
:100990000F91FF90EF90DF900895EF92FF920F93E9
:1009A0001F93CF93DF93EC01162F0AE088818823F1
:1009B00009F454C0813009F04EC08981813099F426
:1009C0007E0122E0E20EF11C8A810E940D06E70101
:1009D0002196812F815050F3EFE9FFE03197F1F735
:1009E00000C00000F7CF823041F47E0182E0E80EC3
:1009F000F11C8A810E948A05EACF833041F47E018E
:100A0000E2E0EE0EF11C8A810E94CE05E0CF843038
:100A100011F02196DDCF2A81229690E080E0AE0190
:100A20004F5F5F4F2053330B2A30310548F0019759
:100A300078F2EFE9FFE03197F1F700C00000F7CF5F
:100A4000089FB001099F700D1124C901860F971FDF
:100A50002981EA01E4CF0E946704BACFDF91CF91E8
:100A60001F910F91FF90EF90089560E00C94CD04DA
:100A700008950C94380581E008950C943B05089581
:100A8000CF93C82F0E9439058C2FCF910C943D0530
:100A9000CF93DF93CDB7DEB72B970FB6F894DEBFB9
:100AA0000FBECDBF4F83588769877A878B876111C7
:100AB0000E945C0D1E8285E0FE013796DE011196D4
:100AC00001900D928A95E1F78C819D81892B89F4A3
:100AD00049815A816B817C818D819E810E94540C59
:100AE0002B960FB6F894DEBF0FBECDBFDF91CF912E
:100AF000089589819A8189238F3F51F3CE01019610
:100B00000E94BB038111E4CFEBCFFC018081918176
:100B10000C949809CF93C82F8823F1F18CEF8C0F98
:100B2000813AA0F46C2F80910001909101010E9404
:100B30009020882329F08C2F0E94FB0C0E948D0DA1
:100B40008C2F0E94F40CCF910C948D0D80E28C0FB1
:100B5000883048F4C77081E001C0880FCA95EAF771
:100B60000E943D0DF0CF8BE58C0F833038F42C2F95
:100B70002452330BC901CF910C945220C85AC7316B
:100B800058F4EC2FF0E0EE0FFF1FEC5DFE4F80817C
:100B90009181CF910C946820CF910895882329F1F9
:100BA0009CEF980F913A20F40E94FB0C0C948D0D51
:100BB00090E2980F983050F4877091E001C0990F3F
:100BC0008A95EAF7892F0E94430DF0CF9BE5980F95
:100BD000933020F490E080E00C945220885A8731C2
:100BE00020F490E080E00C94682008951F93CF9348
:100BF000DF93182FEB010E948A05209731F4812F93
:100C0000DF91CF911F910C94CE058FE99FE0019762
:100C1000F1F700C000002197F0CF70E060E0893369
:100C200011F460E570E00C94F605882321F00E9431
:100C30003D0D0C948D0D0895882321F00E94430DE5
:100C40000C948D0D0895AF92BF92CF92DF92EF92E8
:100C5000FF920F931F93CF93DF936C01D62FC72F73
:100C6000FC011281058102950F700E94120DE82E81
:100C70008823A1F0E12E112389F08C2F807F80340E
:100C800029F080E28D0FE12C883040F082E00E9454
:100C9000DE0D0E94120D91E0E82EE926AC2EA29402
:100CA0009FE0A922B12CF501E251F64D0C944C299C
:100CB0000C2F0F70C07F11F00295007F1123A9F057
:100CC000002359F080E28D0F883010F0D11109C057
:100CD000802F0E943D0D0E948D0D8D2F0E948A0550
:100CE00014C0802F0E944E0DF6CF8D2F0E94CE058E
:100CF000002359F080E28D0F883010F0D1112EC002
:100D0000802F0E94430D0E948D0D28E0A21AB10889
:100D100084E0A816B10420F40E943B200E94400504
:100D2000EE2009F471C10E940E0D80FD6DC1F60127
:100D300012820E94080D0E94E308C6010E94260844
:100D40000E94080DDF91CF911F910F91FF90EF90BE
:100D5000DF90CF90BF90AF900C94EE08802F0E9450
:100D6000540DD1CFFC2FFF70FF2EC07FC03219F081
:100D7000F29480EFF822DD2369F0D13049F111239C
:100D800091F1002351F1F601858180FFA6CF8F708C
:100D9000858323C0112381F0011106C00E94700DCC
:100DA0008F290E941506B1CF0130C1F70E94700D46
:100DB0008F290E94760DA9CF011106C00E94830DD4
:100DC0008F2D0E941C06A1CF013009F49ECFF6CFD3
:100DD000112329F0063008F098CF8F2DE2CF05308F
:100DE00008F093CFEDCF002359F3D93349F4FFEF47
:100DF00027EE83E0F15020408040E1F700C0000082
:100E00008D2F0E94CE0581CF8C2F8695869583707D
:100E100069F0813009F079CF8D2F9C2F93701111DB
:100E200002C090E080E00E9468206FCF8D2F9C2F41
:100E30009370111102C090E080E00E94522065CFB3
:100E40008C2F837081F5111160CF4D2F42954695FF
:100E50004770440F440F8D2F8F70042E01C0880FF0
:100E60000A94EAF72D2F2071D4FF07C02FE030E05D
:100E700001C0220F4A95EAF72095C695C695C37022
:100E8000822BC23051F0C33059F0C13019F00E94AA
:100E9000C4083BCF0E94BF0838CF0E94C90835CF95
:100EA0000E94BD0832CF8695112311F08C2F8170DE
:100EB000882309F42ACF4D2F429546954770440F59
:100EC000440F8D2F8F70042E01C0880F0A94EAF70B
:100ED0002D2F2071D4FF07C02FE030E001C0220F7A
:100EE0004A95EAF72095C695C695C370822BC23005
:100EF00051F0C33059F0C13019F00E940A0905CFF2
:100F00000E94050902CF0E940F09FFCE0E94D2085D
:100F1000FCCECF70112329F08C2F0E94E3088D2F77
:100F200040CF8D2F0E941C068C2F0E94EE08EDCE24
:100F3000D23F89F160F4D03FC9F0D13F29F11123AC
:100F400009F442C00111C9CE8C2F8F7121C0D33F4B
:100F500039F1D43FA1F7112369F1CF718C2F0E9491
:100F6000E30863E08C2F0E94C30DCFCE112341F024
:100F7000053008F0CACE8C2F8F710E94FA08C5CEBA
:100F8000063008F0C2CEF7CF8C2F8F71112369F293
:100F90000E94E308BACE8C2F8F711123C9F3C5CFFD
:100FA000112329F08C2F8F710E94DB08AECE0E9496
:100FB000D808ABCE81E00E94DE0D023008F4A5CE49
:100FC00082E00E94DE0DA1CE002359F0D93309F052
:100FD00017CF9FEFE7EEF3E09150E040F040E1F7EC
:100FE0000DCF8C2F8F71A1CF4C2F4F706D2FC6015D
:100FF0000E94820F0E94CE0988CE4C2F4F706D2F19
:10100000C6010E94850F81CEDF91CF911F910F9174
:10101000FF90EF90DF90CF90BF90AF9008950F9327
:101020001F93CF93DF93EC01688179818A810E94BD
:10103000A4098C010E9414090E94BC08B801CE01C9
:10104000DF91CF911F910F910C942306CF93DF93E3
:10105000EC018B819C81892B29F0888199818923DE
:101060008F3F59F4DF91CF910895CE010E940F0870
:10107000CE01DF91CF910C94BD03CE010E940804F4
:101080008111F3CF0E94120D882361F38A81882396
:1010900049F382E0DF91CF910C94DE0D90E080E087
:1010A0000E94522090E080E00E9468200E945C0D27
:1010B0000E946D0D0C948D0D0E94020D0C944E0833
:1010C0000E944B0D0C945C08282F892F82958F70FD
:1010D000903C80F48A30B0F4843020F4823090F474
:1010E00080E008958630E1F781E0283E88F0213FD6
:1010F000B9F70EC08C3011F08F3091F793FB882731
:1011000080F9089581E0203F39F018F4283E40F737
:101110000895243F29F7FCCF0895FC018081918137
:101120000E9498090C946408CF93DF9300D000D0FC
:101130000F92CDB7DEB70F900F900F900F900F90DA
:10114000DF91CF910895CF93DF9300D000D000D0EE
:10115000CDB7DEB726960FB6F894DEBF0FBECDBF73
:10116000DF91CF91089508950C94B3080E94B408BC
:101170008093E5010C944E0808950C94B608909164
:10118000E501892B0C94B6089091E50189230C9414
:10119000B6089091E50189270C94B6080C94B30821
:1011A0000C94CE080E94D0088093E4010C944E0861
:1011B00080E00C94D20891E001C0990F8A95EAF77B
:1011C000892F0C94D20821E030E001C0220F8A95CB
:1011D000EAF78091E401822B0C94D20821E030E000
:1011E00001C0220F8A95EAF720958091E4018223BD
:1011F0000C94D20821E030E001C0220F8A95EAF772
:101200008091E40182270C94D2089091E401892B0B
:101210000C94D2089091E40189230C94D208909107
:10122000E40189270C94D2080895990F990F990F1A
:10123000E92FE80F877041E001C0440F8A95EAF773
:10124000E695E695E69583E0E89FF0011124E753E3
:10125000FE4F30E020E070E05191DF011197CB01AB
:10126000022E02C0969587950A94E2F781708195C7
:101270008527842385278C932F5F3F4F23303105AB
:1012800059F70895E92FEE0FEE0FEE0FE80F982FA4
:101290009770E695E695E69583E0E89FF0011124C6
:1012A000E753FE4F50E040E080E0219130E0092E0E
:1012B00002C0369527950A94E2F721703327042E51
:1012C00001C0220F0A94EAF7822B4F5F5F4F433031
:1012D000510559F70895DF92EF92FF920F931F93F4
:1012E000CF93DF937C010091E4018091E501082B0D
:1012F000C7E0D0E010E0DC2EC8010C2E02C09595AE
:1013000087950A94E2F780FD0CC02197A0F7D12CB5
:101310008D2DDF91CF911F910F91FF90EF90DF9076
:101320000895B7018C2F0E949710019771F3F0CFA9
:10133000CF93DF93D82FC92F0E946B096D2F7C2F7D
:10134000DF91CF910C9497101F93CF93DF93162FBB
:10135000D72F9091C801992339F0862F972FDF91CD
:10136000CF911F910C949809882391F0862F972F85
:101370000E946B09C82F682F812F9D2F0E9415098D
:10138000612F7D2F8C2FDF91CF911F910C9497109F
:10139000862F972F0E944209C82FF2CFEF92FF921B
:1013A0000F931F93CF93DF938C01892B89F0F12C3E
:1013B000EE24E394E8012196F8018491843709F43E
:1013C00057C0A0F4823009F43EC048F48130D1F017
:1013D000DF91CF911F910F91FF90EF9008959CEFB7
:1013E000980F9037A8F70E948A050AC0853709F43C
:1013F0004CC09CE7980F903758F78F770E94CE0526
:101400008E0116C00E5F1F4FFE01849190E2980F6F
:10141000983060F48770FE2D01C0FF0F8A95EAF7BF
:101420008F2F0E945F0D0E948D0D02C00E948A05C1
:101430008F2D815008F4BECFEFE9FFE03197F1F72F
:1014400000C00000F6CF0E5F1F4FFE01849190E2B6
:10145000980F983050F48770FE2D01C0FF0F8A95C9
:10146000EAF78F2F0E94650DDECF0E94CE05E0CFF8
:101470000E5F1F4FFE01C491C150D0F28FE99FE073
:101480000197F1F700C00000F7CF0E5F1F4FFE017C
:10149000F490CECF1F93CF93DF93E091E60116E057
:1014A0008091E7018E1304C0DF91CF911F910895C1
:1014B000CE2FD0E01E9FF0011124E851FE4F408155
:1014C000518162817381848195810E94A308FE010C
:1014D0003196E770E5CF4091180250911902609162
:1014E0001A0270911B0280911C0290911D020C94B3
:1014F000A3081F93CF93DF9380911D02807FA9F4EF
:1015000080911A02882389F08091E601C091E70159
:101510006091180270911902A0911B02B0911C02F7
:10152000D62FD72316E0C81304C0DF91CF911F91A7
:10153000089590E0109711F0DF3F19F4019687703D
:10154000F2CF189F9001199F300D1124F901E85135
:10155000FE4F41814713F2CF40814613EFCF4281C6
:101560004111ECCF438154814A1B5B0B483C510530
:1015700028F780911D028F70806180931D02F90110
:10158000E351FE4F80818F708061808388E192E01B
:101590000E942608DF91CF911F910C944A0AAF92C6
:1015A000BF92CF92DF92EF92FF920F931F93CF9350
:1015B000DF93CDB7DEB72B970FB6F894DEBF0FBE23
:1015C000CDBF8C0185E0F801DE01179601900D92E8
:1015D0008A95E1F7F801E28088E1C82E82E0D82EF2
:1015E00060911B0270911C026115710509F440C1E4
:1015F0009091180220911902822F89238F3F09F4BC
:1016000037C140815181A380B480F0901A02F50166
:10161000E61BF70BFF2009F4DDC080911D02382F77
:10162000307FE83CF10508F0AFC0311179C0FE2CE5
:10163000521323C0941321C0E1101FC08F7080612A
:1016400080931D020E946B0AC6010E9426088091A9
:101650001D02F80185838F2D2B960FB6F894DEBFFF
:101660000FBECDBFDF91CF911F910F91FF90EF90F3
:10167000DF90CF90BF90AF900895AB2829F0852FD1
:1016800084238F3F09F00DC180E0F82FF170DF2E29
:10169000E091E6012091E70136E080FD1CC0EE20DC
:1016A000D1F280911D02816080931D02F12CD3CF75
:1016B0008E2F90E03E9FF0011124E851FE4F618192
:1016C000561306C06081641303C06281E612E7CF3F
:1016D000FC013196E770E213EBCF4F8358878F817F
:1016E00098850E949809292F22952F70903260F0DA
:1016F000225F2F70223078F49F7051F0F8019581AD
:10170000907F31F4D12C0AC09F7011F08823D1F35F
:10171000805E8830B8F3C8010E942608FD2C9BCF5C
:10172000521306C0941304C0F801EE2009F46DC0F2
:10173000C8010E948D08882319F1EE2009F18091DB
:101740001D02803270F020911802309119023A8304
:1017500029831B82BD82AC828E83CE0101960E94BA
:10176000260886E0F801A8E1B2E001900D928A9582
:10177000E1F70E94790A0E946B0AFF24F3946BCF71
:10178000C8010E942608F9CF311113C07A2DBB86FB
:10179000AA866E2D8B850E94940888E192E00E94B3
:1017A000260886E0F60111928A95E9F70E946B0AF5
:1017B0007DCF5213BDCF9413BBCFE110B9CFF80149
:1017C0008583C8010E94260886E0F60111928A9559
:1017D000E9F741CFE83CF10508F03DC0FE2CEE20D2
:1017E00079F252132AC0941328C080911D0280FD03
:1017F0001BC0982F907FC1F0F8018583903F31F096
:10180000982F907F905F8F70892B8583C8010E94ED
:10181000260886E0F801A8E1B2E001900D928A95D1
:10182000E1F70E946B0A17CF86E0F801A8E1B2E069
:1018300001900D928A95E1F70ECFC8010E948D08A4
:1018400081118FCF80911D02816080931D02C8019C
:101850000E94260800CF7A2DBB86AA866E2D8B8526
:101860000E94940886E0F60111928A95E9F7D9CF93
:10187000EE2009F485CFC8010E948D08F82E882338
:1018800009F47ECF86E0F801A8E1B2E001900D9264
:101890008A95E1F788E192E00E9485050E94790A25
:1018A000C0CF81E08E25F1CE1F93CF93DF93CDB7CC
:1018B000DEB72C970FB6F894DEBF0FBECDBF4F83B7
:1018C000588769877A878B879C87CE0107960E9405
:1018D000CF0A882369F08A859B85892B39F04F814F
:1018E0005885842F85238F3F09F077C016E065C0A7
:1018F00086E0FE013796DE01119601900D928A95E1
:10190000E1F76A857B856115710581F35F81488503
:10191000842F85238F3F51F32091E70130E0C901E7
:10192000019687709927E091E601E817190671F48E
:101930000E9460081092E7011092E60186E0E8E15B
:10194000F2E0DF011D928A95E9F7D0CF59834A83EF
:101950007D836C8396E0929FD001939FB00D1124FC
:10196000A851BE4FFE01319601900D929A95E1F774
:101970008093E7010E944A0AB9CF819FC0011124D8
:1019800088519E4F0E94CF0A8823E9F0E091E6013A
:101990001E9FF0011124E851FE4F40815181628168
:1019A0007381848195810E94A3088091E60190E073
:1019B0000196877099278093E6018091E6019091C6
:1019C000E7018913DACF2C960FB6F894DEBF0FBE6D
:1019D000CDBFDF91CF911F91089569857A858B8561
:1019E0009C850E94A30882CF682F8091000190916E
:1019F00001010C94CA20682F80910001909101018F
:101A00000C94CC2080910001909101010C94CE2087
:101A100080911E02859585958595089580911E0279
:101A20008770089590911E02977081E009F480E01C
:101A300008959091660292FB222720F9281751F011
:101A400080FB92F990936602809165029091660204
:101A50000C94210E08958091660282FB882780F9FC
:101A600091E089270C94190D81E00C94190D80E008
:101A70000C94190D80912A02089590912A02982BB6
:101A800090932A020895982F909580912A02892395
:101A900080932A02089510922A02089590912902B3
:101AA000982B909329020895982F90958091290260
:101AB0008923809329020895109229020895909114
:101AC0002802982B909328020895982F9095809142
:101AD00028028923809328020895109228020895ED
:101AE00080911F02089508950C94730D90916602E1
:101AF00092FD08C090911F02981721F080931F0259
:101B00000C94740D089580911F02882329F010927F
:101B10001F0280E00C94740D0895E0910001F09193
:101B2000010180912A028083E0910001F09101017E
:101B3000808190912902892B8083E0910001F091AE
:101B40000101808190912802892B808390911F024E
:101B5000992381F0E0910001F09101018081892BAE
:101B6000808380910001909101010E947E2081116B
:101B70000E94830D80910001909101010C944720F7
:101B800008950C94C00D9091660292FD10C098E0EB
:101B9000899F90011124622B60931E020E94E3082A
:101BA00080911E028595859585950C94C10D0C94A8
:101BB000E30810921E0280E00C94C10D90911E0269
:101BC0008095892380931E02282F277039F4282FAF
:101BD000082E000C330B9217130621F49091660225
:101BE00092FF07C08595859585950E94EE080C9417
:101BF000D90D08956FEF7FEF90E080E00C94D62927
:101C000090E080E00E94B229893E9E4F11F40C942E
:101C1000CD1A80E0089582E090E00C94A42983E03E
:101C200090E00C94A429CF9384E090E00E94A42932
:101C3000C82F82E290E00E94A429982F8C2FCF9188
:101C40000895CF93682FC92F84E090E00E94B829AF
:101C50006C2F82E290E0CF910C94B829AB01BC01CB
:101C60008FE090E00C94CA29AB01BC0183E190E0C5
:101C70000C94CA2960E070E0CB010C94340E60E053
:101C800070E0CB010E942E0E0C943A0E69EE7EEFAE
:101C900090E080E00E94D62960E082E090E00E941F
:101CA000B82960E083E090E00E94B8291092E50135
:101CB00060E084E090E00E94B82960E082E290E079
:101CC0000E94B82960E085E090E00E94B82960E0B9
:101CD00086E090E00E94B8296FEF87E090E00E94D4
:101CE000B82940E050E0BA0188E090E00E94CA299B
:101CF00060E08DE090E00E94B82940E050E0BA0139
:101D000088E190E00E94CA2960E087E190E00E94AB
:101D1000B82940E050E0BA018CE190E00E94CA2965
:101D200070E060E080E290E00E94D62940E050E060
:101D3000BA0188E190E00E94CA2980E00E94E61A78
:101D40000E941A1B0C943F0E0C94460E682F8EE0D6
:101D500090E00C94B8290E94652160933902709339
:101D60003A0280933B0290933C0260933502709359
:101D700036028093370290933802089585B78068C1
:101D800085BF85B7806885BF0895089508950C9430
:101D9000C50E08950C94C90E0E94BE0E86E791E10F
:101DA0000E94C9210E94C60E0C94C70E81E00895BE
:101DB0000C94D60E089508950E94DA0E0C94DB0E52
:101DC0000E9450210E94291B0E945E120E94391914
:101DD0000C94CA0EAF92BF92CF92DF92EF92FF9215
:101DE0000F931F93CF93DF9300D000D00F92CDB706
:101DF000DEB70E946F1281110E94AB0E8CE2A82EFA
:101E000082E0B82E10E000E0C02E802F0E94B011BA
:101E1000F82EF501E1905F01E81609F44CC08091BD
:101E20003D0281FD0E94B6118E2D8F25D12CEE240E
:101E3000E394982F9E21D1F10E94D80E882399F027
:101E4000D982CA82FE2081E009F480E08B830E945F
:101E500059218160782F9D838C8349815A816B81C0
:101E60008D810E944805F801E45DFD4F8081E826E0
:101E7000E0820E9474190E943B2090912B028917E6
:101E800089F10E943B2080932B020F900F900F90BE
:101E90000F900F90DF91CF911F910F91FF90EF90D6
:101EA000DF90CF90BF90AF900C944005D394EE0C90
:101EB000F8E0DF12BECF0F5F1F4F0930110509F0A8
:101EC000A3CF8FEF89838A831B820E94592181606F
:101ED000782F9D838C8349815A816B818D810E94EB
:101EE0004805C7CF0F900F900F900F900F90DF9184
:101EF000CF911F910F91FF90EF90DF90CF90BF9007
:101F0000AF90089590E080E008950895FC01EE0FF1
:101F1000FF1FE45FFC4F859194910895CF93DF9369
:101F20000E949B10EC01811521E5920708F048C042
:101F3000811530E5930708F0AFC0803E910518F594
:101F4000803C910508F096C0883A910570F4853A76
:101F5000910508F08CC08130910531F10497813AE8
:101F6000910510F1D0E0C0E01FC08F3B9105D1F387
:101F7000C85AD0E0CC0FDD1FCE5ADE4F0990D88171
:101F8000C02DD46411C0811540E3940788F4C115B5
:101F900080E2D80708F074C0C83ED10528F0CE0111
:101FA0009A9581159F41F0F6CE01DF91CF9108956A
:101FB000811530E4930708F466C0DF70D06AF4CF6F
:101FC0008115964560F5C11585E5D80708F096C0DE
:101FD000C11594E5D907F0F4C11523E5D20708F03F
:101FE00079C0C11532E5D30708F46FC0CE01837004
:101FF000992721E030E002C0220F331F8A95E2F7D3
:10200000C695C69540E2C49FE0011124C22BD32B94
:10201000DC68CACFDC2FCC27C46FD06AC5CFC1150E
:102020008AE5D80788F4C11599E5D90708F071C089
:10203000CE0198558F3F910511F008F093CFDC2F1A
:10204000CC27C06FD06AB0CFCE0190568115904298
:1020500008F088CF8D2F8F710E94331190E0982F58
:10206000882788279F719C012C2BE90150C0A497D9
:10207000D0649ACF805C91090E94860FEC0194CFC6
:10208000CE019F70F9CF9927D3FF03C0EC01D86C24
:102090008BCFEC01D06C88CF74E0969587957A95BC
:1020A000E1F783702C2F26952695237040E2249F1C
:1020B00090011124382B8C2F8370C1E0D0E002C036
:1020C000CC0FDD1F8A95E2F7A1CFDC2FCC27C16FA3
:1020D000D06A6ACFCE018370992721E030E002C038
:1020E000220F331F8A95E2F7C695C69580E2C89FF6
:1020F000E0011124C22BD32BDA6856CF8C2F0E941B
:102100003311C82FD0E0DC2FCC27CC27DF71D06271
:102110004BCF8C2F8F700E94331134E0D695C7952A
:102120003A95E1F7CF70DC2FC82FD0693DCF0E94E0
:10213000A41D0C948E0F803E910599F1C8F4813353
:10214000910509F476C048F48932910509F46AC012
:102150008A32910509F474C0089589339105D1F04C
:1021600082389105B9F08533910509F454C008957A
:10217000843E910599F138F4823E9105F9F0833E51
:10218000910509F10895863E910599F1873E9105E3
:10219000B9F10895209165022370A1F080EE90E0DE
:1021A00008952091650220FD52C03091660230FFF3
:1021B00009C024FF4FC090E080E004C02091650278
:1021C00022FDF7CF08952091650222FD46C030918F
:1021D000660230FDE3CF24FFF5CFEDCF20916602FC
:1021E00021FFF0CF8091650284FDE5CF87EE90E07E
:1021F00008952091650223FFE5CF24FDDCCFF6CFC3
:102200002091650223FD2CC03091660231FFE3CF9F
:1022100084EE90E008952091650225FFD3CF89E2F6
:1022200090E008952091650225FFCCCF85E390E0F2
:1022300008952091650226FFC5CF8AE290E00895B7
:102240002091650226FFBECF81E390E0089589E3E7
:1022500090E0089583EE90E0089582EE90E0089576
:1022600086EE90E008959091650292FF06C0282FB7
:1022700028712830F9F4877F846093FF06C0282FE7
:1022800028712831F1F4877E84612091660220FF55
:1022900006C0382F38713830D9F4877F816021FF2C
:1022A00006C0282F28712831D1F4877E816194FDE2
:1022B000877E0895282F24712430F9F68B7F88605B
:1022C000DCCF282F2471243101F78B7E8861DDCF8C
:1022D000382F3171313019F78E7F8860E0CF282F89
:1022E0002171213121F78E7E8861E1CF80E0089550
:1022F0000C94FA0D0E946F128FE39CE90197F1F79D
:1023000000C000000E946F1280E00E94B01180FFA8
:1023100004C00E9478110C94B82108950C947A118D
:102320000E94000E811102C00E94A40E0E940B0E9A
:1023300080933D020E94130E909366028093650283
:102340000E948E110E940F0E0E94BD088091E40130
:102350000C94D00808950C94AA1108950C94AD1112
:10236000E82FF0E0E059FD4F80810895089580EA5C
:102370008A95F1F7089500C008950C94B711F89468
:10238000E82FE295EF70F0E041A18F7021E030E09E
:10239000B90102C0660F771F8A95E2F7CB01962F2D
:1023A0009095942391A392A1892B82A37894089568
:1023B000CF93DF93C8E8D1E089918F3F11F00E945D
:1023C000BF1181E0C139D807B9F7C0E8D1E08991E0
:1023D0008F3F11F00E94BF1181E0C838D807B9F7CC
:1023E000DF91CF910895CF92DF92EF92FF920F93FA
:1023F0001F93CF93DF93EC01D62E062F10E0C80178
:1024000088579E4F7C01FC0120812F3F09F44BC06F
:10241000F894E22FE295EF70F0E031A12F7081E0A7
:1024200090E001C0880F2A95EAF7932F982B91A38B
:1024300092A18095892382A378940E94BB11E0E841
:10244000F1E030E020E0C12C51E041914F3FA1F19B
:10245000A42FA295AF70B0E090968C9190E04F7051
:1024600002C0959587954A95E2F780FD25C0852F96
:10247000022E01C0880F0A94EAF7C82A2F5F3F4F47
:102480002830310511F7F70180818F3F11F00E944C
:10249000BF1161E0C11001C060E08D2D0E94BD112F
:1024A000C00FD11FC882DF91CF911F910F91FF9074
:1024B000EF90DF90CF90089580E0DFCF0E94D81199
:1024C000E7E6F2E0A0E7B2E011921D9282E0E03789
:1024D000F807D1F789E00E94BA120C94F0031F9319
:1024E000CF93DF93CDB7DEB729970FB6F894DEBF51
:1024F0000FBECDBF1A821982FE01339687E0DF013D
:102500001D928A95E9F710E0612FCE0101960E9495
:10251000F3111F5F1930C1F749E050E0BE016F5F52
:102520007F4F87E692E00E9497299C0111E0892B5A
:1025300009F410E0232B49F089E0FE013196A7E66B
:10254000B2E001900D928A95E1F7212F49E060E712
:1025500072E087E692E00E94BB120E94F603812F90
:1025600029960FB6F894DEBF0FBECDBFDF91CF9195
:102570001F9108950895FF920F931F93CF93DF93B8
:10258000F82E092F162FD72FC42F222349F081E0D0
:10259000809340020E94592190933F0280933E0213
:1025A000809140028823A1F080913E0290913F02E9
:1025B0000E948521059760F0EF2DF02FA12FBD2FF0
:1025C000CE0FDF2FD11DEC17FD0741F41092400212
:1025D000DF91CF911F910F91FF90089581918D937D
:1025E000F2CF0E94D6200E943B230E9454230E94D7
:1025F00066230E94DC0EFBCFCF92DF92EF92FF9218
:102600000F931F93CF93DF93D62FC72F982F71115E
:1026100013C0442329F0E82FF0E0ED5DFB4F9491C7
:10262000692F792F892FDF91CF911F910F91FF9003
:10263000EF90DF90CF900895272F30E0E82FF0E063
:10264000442321F0ED5DFB4FE491F0E086E0D89F5C
:10265000700111240FEF10E0C701B8010E94022998
:102660008D2F90E0880F991FA5E5A69FA001A79F39
:10267000500D1124841B950BD82EDD0CD80EC801EB
:10268000821B930B8E9FA0018F9F500D9E9F500D1C
:102690001124952FDC9EE0011124CD2FDD27D801D8
:1026A000AC1BBD0BED01CE9FD001CF9FB00DDE9FC7
:1026B000B00D11248B2FE801CD19D1096E01C29EF6
:1026C000E001C39ED00DD29ED00D1124CD2FDD2769
:1026D0000C1B1D0B0E9FE0010F9FD00D1E9FD00DF8
:1026E00011242E2F63307105D9F03CEFE31633E04F
:1026F000F30668F461307105B9F062307105C1F01C
:10270000AFEFEA16F10448F4852F9D2F06C0643020
:10271000710589F066307105B9F3692F722F83CF87
:102720009B2F8E2F252FF9CF9E2F2B2F852FF5CF67
:102730008D2F9E2FF7CF8E2F2D2FEFCF41E00C94B2
:10274000FC1208950C949E13CF93DF93982F762F4D
:10275000842FE901692F0E94A213798368838A83F9
:10276000DF91CF91089580917902982F9E7F29F46F
:10277000817082608093790208958A34E8F38170D1
:102780008864F8CF88E090E00C94AC290F931F93F5
:10279000CF93DF938B01D82FC92F0E94B313A801C9
:1027A0006D2F7C2F88E090E0DF91CF911F910F91EA
:1027B0000C94CA29CF93DF9300D000D0CDB7DEB7F9
:1027C0008091790290917A02A0917B02B0917C0273
:1027D00089839A83AB83BC83BC01CD010F900F909A
:1027E0000F900F90DF91CF910C94C613CF93DF938E
:1027F00000D000D0CDB7DEB7E9E7F2E083E0808318
:1028000011828FEF82838383148280819181A281E0
:10281000B38189839A83AB83BC83BC01CD010F90C4
:102820000F900F900F90DF91CF910C94C613809171
:10283000790280FF02C08695089580E00895CF93C5
:10284000DF9300D000D0CDB7DEB790917D029330FA
:1028500018F49F5F90937D028823B1F080917902F4
:1028600090917A02A0917B02B0917C0289839A8335
:10287000AB83BC83BC01CD010F900F900F900F90E4
:10288000DF91CF910C94C6130F900F900F900F9083
:10289000DF91CF91089581E00C941F14CF93DF93C3
:1028A00000D000D0CDB7DEB790917D02992319F00A
:1028B000915090937D028823B1F08091790290919C
:1028C0007A02A0917B02B0917C0289839A83AB83C8
:1028D000BC83BC01CD010F900F900F900F90DF9142
:1028E000CF910C94C6130F900F900F900F90DF9123
:1028F000CF91089581E00C944E1480917D0208954B
:10290000CF93DF9300D000D0CDB7DEB780937D02A8
:102910006623B1F08091790290917A02A0917B02B6
:10292000B0917C0289839A83AB83BC83BC01CD01C7
:102930000F900F900F900F90DF91CF910C94C613D2
:102940000F900F900F900F90DF91CF91089560E05E
:102950000C94801480917A02089580917B020895EE
:1029600080917C02089570E00C949F1A609106019A
:102970008091790280FF0AC08091050123E0829F47
:10298000C001112482589D4F0C94B314809107010B
:102990009091080123E0829FF0011124E258FD4F3D
:1029A000891750F71182108212828F5F3396F8CF09
:1029B0009091790290FF14C0909107012091080135
:1029C00033E0939FF0011124E258FD4F921710F06D
:1029D0000C94B6148183608342839F5F3396F6CF55
:1029E0000895CF93DF9300D00F92CDB7DEB79091CB
:1029F000790290FF0AC09E012F5F3F4F0E94A413EF
:102A00004B8169818A810E94D8140F900F900F909A
:102A1000DF91CF910895CF93DF93EC01EC81F0E04B
:102A2000E25EFC4F4491E9E7F2E0628181810E941D
:102A3000F1148C818F5F8C83DF91CF910895CF93B8
:102A4000DF93EC01E9E7F2E0438162818C810E942F
:102A5000F1148C818F5F8C83DF91CF9108950F9358
:102A60001F93CF93DF9300D00F92CDB7DEB78C01C9
:102A70008091410281110AC09E012F5F3F4F4FEFAD
:102A80006FEF0E94A4138A8180934102F801648150
:102A9000613049F06230F1F08091410240E06623FC
:102AA00031F040E019C06091410240E080E00E94B6
:102AB000D814F801848190E0019663E070E00E94F0
:102AC000162984830F900F900F90DF91CF911F9163
:102AD0000F9108954091410280E060E0E8CFAF920D
:102AE000BF92CF92DF92EF92FF920F931F93CF93FB
:102AF000DF9300D000D000D00F92CDB7DEB7182FF3
:102B0000F62E042FD22E9091790290FF2BC0E92F40
:102B1000E695AE2FB0E0AF56BE4F8C9180934B023E
:102B20009E7F923081F59E012F5F3F4F812F0E9443
:102B3000A4134B8169818A810E94D81410937A0270
:102B4000F0927B0200937C02DD2061F0809179029B
:102B500090917A02A0917B02B0917C02BC01CD01E0
:102B60000E94C61327960FB6F894DEBF0FBECDBFE6
:102B7000DF91CF911F910F91FF90EF90DF90CF9059
:102B8000BF90AF900895823019F400917C02D6CFA7
:102B9000863019F410917A02D1CF8930D9F3893176
:102BA00069F6E9518E2F8170C82EE695F0E0E25E5D
:102BB000FB4FA590B490E12CBB2460910901E6166F
:102BC00018F00E94B614BACF2E2D30E0EA9CC00156
:102BD000EB9C900D112470E00E940229812FC110FE
:102BE00013C0860F40910701420F532F511D9A01C8
:102BF000220F331F240F351F22583D4F402F6F2DBA
:102C00000E94A413E394D9CF861BECCF282FE9E7C9
:102C1000F2E0818143816281865F0C946F1581E0CF
:102C20000C940616282FE9E7F2E081814381628146
:102C30008A500C946F1581E00C941216282FE9E746
:102C4000F2E0628131E1630F08F46FEF438181812B
:102C50000C946F1581E00C941E16282FE9E7F2E022
:102C6000628131E1631B08F460E0438181810C944F
:102C70006F1581E00C942D16282FE9E7F2E04381CF
:102C800031E1430F08F44FEF628181810C946F159D
:102C900081E00C943C16282FE9E7F2E0438131E112
:102CA000431B08F440E0628181810C946F1581E040
:102CB0000C944B1620E00C946F15EF92FF921F932B
:102CC000CF93DF93EC0110E0EE24EA94F12C6091B5
:102CD0000901161770F00E94B6149A818C8190FF3A
:102CE00027C08F5F8C83DF91CF911F91FF90EF9072
:102CF000089520910701422F410F5527551FCA0102
:102D00009A01220F331F280F391F22583D4F70E0C0
:102D1000C7010E941629962F8C8140917C026091F8
:102D20007B02199F800D11240E94A4131F5FCFCF37
:102D30008150D8CFBF92CF92DF92EF92FF920F9344
:102D40001F93CF93DF93FC0182810FEF80FF01E09F
:102D500010E0809109011817C0F00E94B61480910C
:102D60004302013009F051C0811102C08091090174
:102D7000815080934302DF91CF911F910F91FF907B
:102D8000EF90DF90CF90BF900895C0910701C12EC2
:102D9000D12CCC0DDD2DD11DCE01880F991FC80F70
:102DA000D91FC258DD4F198218821A8234E0E32EEF
:102DB000F12CB12C809143028B0D813104F18F7085
:102DC000082E000C990BC816D90691F480917C024C
:102DD0008E9DA0018F9D500D1124559547955595B9
:102DE00047959E0160917B0280917A020E94A41314
:102DF000B00EF1E0EF1AF108E9F61F5FAACF87FFE6
:102E0000DFCF90910901890FDBCF90E001966091AF
:102E1000090170E00E941629ACCF0F931F93CF9346
:102E2000DF93809107019091080123E0829FF001D8
:102E30001124E258FD4F891740F1C0E0D3E06091C2
:102E40000901C61740F10E94B61420910301809138
:102E50004202820F8093420290910401920F90935C
:102E60000401191654F4082E000C990B4091090125
:102E70004150550B841795071CF0219520930301B1
:102E8000DF91CF911F910F910895118210821282CC
:102E90008F5F3396D0CF0C2F10E070E0C8010E94F6
:102EA000162920910701820F482F50E020914202FD
:102EB000022E000C330B02171307BCF02091040103
:102EC000022E000C330B201731077CF08D9F9001F0
:102ED000112422583D4F40917C0260917B028091E9
:102EE0007A020E94A413CF5FAACFFA01EE0FFF1F50
:102EF000E40FF51FE258FD4F118210821282F3CFCA
:102F0000EF92FF920F931F93CF93DF93CDB7DEB76E
:102F10002E970FB6F894DEBF0FBECDBF8D879E876C
:102F2000AD85BE8514961C91212F30E0D9010E94F9
:102F300061299B01AC010E94772969837A838B8385
:102F40009C83E0E2F0E0E11BF109A5E5B0E09B0124
:102F5000AC010E94772969877A878B879C879F01BC
:102F6000DF010E9459296D837E838F8398879B019F
:102F7000AC010E9482299B01AC0169817A818B811D
:102F80009C81260F371F481F591F69857A858B85BD
:102F90009C850E942A29F22E822F90E079E27217F6
:102FA00088F183E0289F9001112435952795122FF1
:102FB000109500E085E5E82EEF18809109010817CB
:102FC00080F10E94B614AD85BE8514969C9181E077
:102FD000992319F0903219F48FEF809302018091B8
:102FE0000201890FED85FE8584832E960FB6F89435
:102FF000DEBF0FBECDBFDF91CF911F910F91FF902C
:10300000EF90089525E530E0D901A81BB90B9D018B
:10301000220F331F2A0F3B1F37FFC7CF2F5F3F4FB2
:10302000C4CF8E2D01FD8F2D20910701E22FE00FDF
:10303000FF27FF1F9F01220F331F2E0F3F1F225814
:103040003D4F412F60917B020E94A4130F5FB5CFCB
:103050000F931F93CF93DF93EC0110E000E090916A
:1030600009019017110609F06CF40E94B6148C81C6
:1030700090E00196817099278C83DF91CF911F9109
:103080000F91089520910701A801420F511D9A0147
:10309000220F331F240F351F22583D4F4C81609162
:1030A0007B0280917A0296959017110651F04CF0B0
:1030B000442349F040917C020E94A4130F5F1F4FEC
:1030C000CECF4423B9F340E0F7CFCF93DF9300D0C6
:1030D00000D0CDB7DEB7E9E7F2E080818E7F808354
:1030E00080819181A281B38189839A83AB83BC83E0
:1030F000BC01CD010E94C61310924C029FEFA0E7C5
:10310000B2E09150A040B040E1F700C000000F9045
:103110000F900F900F90DF91CF910C94B614E9E7C8
:10312000F2E080818E7F808310924C022FEF80E747
:1031300092E0215080409040E1F700C000000C94E4
:10314000B61460917902669570E04BE050E08AE039
:1031500091E00E948A29892B19F481E080934C0226
:103160000E94592190934502809344020895CF9381
:10317000DF9300D000D0CDB7DEB79091790290FFF9
:1031800041C09170811134C092609093790266239E
:1031900081F08091790290917A02A0917B02B091A6
:1031A0007C0289839A83AB83BC83BC01CD010E94DE
:1031B000C61360917902669570E04BE050E08AE0BA
:1031C00091E00E948A29892BD1F010924C0281E073
:1031D0008093470240917C0260917B0280917A0249
:1031E0000F900F900F900F90DF91CF910C945A1683
:1031F000853210F09864C9CF880F982BC6CF0E94F3
:10320000A118E5CF0F900F900F900F90DF91CF9105
:103210000895682F8091790286958F5F853208F036
:1032200081E00C94B71881E00C940919682F9091F3
:10323000790296958FEF890F913009F484E20C940E
:10324000B71881E00C94161961E00C94B718E9E7FF
:10325000F2E080818160808386950C9424198091AE
:10326000790280FD0C9465180C94271960E00C9489
:10327000B71880914A0281112EC00E94000E811160
:1032800004C00E94A40E0E94F6130E94C213609311
:10329000790270937A0280937B0290937C026E7F16
:1032A00061F40E94F6130E94C21360937902709336
:1032B0007A0280937B0290937C020E94B313109257
:1032C0004C028091790280FF03C086950E943619D6
:1032D00081E080934A020895E9E7F2E0808181600D
:1032E000808386950C9436190F931F93CF93DF93A9
:1032F00080914C02882309F486C080914B02E091B2
:103300007902E695E81BE0934602823091F5F0E001
:10331000E65EFC4FE491CE2FD0E00BE015E180910A
:103320004702882361F0109247020E94592190932E
:1033300045028093440210924902109248020E9472
:103340005921E0914402F09145028E1B9F0B8F3F63
:103350009F4708F058C0EC0FFD1FF0934502E09323
:10336000440284E492E0F801DF91CF911F910F9124
:103370000994863049F4F0E0E95EFC4FE491CE2FE9
:10338000D0E00FE115E1CBCF893051F4E695F0E0C4
:10339000EC5EFC4FE491CE2FD0E00DE516E1BFCFFF
:1033A0008F3051F4E695F0E0EF5EFC4FE491CE2FC4
:1033B000D0E00AE916E1B3CF853149F4F0E0E25FED
:1033C000FC4FE491CE2FD0E00DE017E1A8CFC8E28A
:1033D000D0E000E817E1883109F4A1CF833239F455
:1033E000ECE0F3E0C591D4910FE215E198CFC4EF82
:1033F000D1E008E218E1843209F491CFC0EDD7E0C2
:1034000001EA13E18CCFDF91CF911F910F910895C5
:10341000FA0181110994FB01FDCFCF93DF93C82FEF
:10342000D62F0E9417148C1740F00E9417148D1786
:1034300020F4DF91CF910C9413198C2FDF91CF9151
:103440000C9424190F931F93CF938C01FB01C2811D
:10345000CC2309F472C00E943A0D8272063DFCE54D
:103460001F0770F4023C9CE5190778F0F801E35C53
:10347000FC45E331F10570F4E250F64D0C944C2913
:10348000C1E00D351D4509F4C0E08C2FCF911F918F
:103490000F9108950E942F19F7CF41E259E163E19E
:1034A00079E10E94081AF0CF43E159E161E279E144
:1034B000F8CF4BE156E16FE076E1F3CF4FE056E114
:1034C0006BE176E1EECF49E356E16AE276E1E9CFDE
:1034D0004AE256E169E376E1E4CF47E556E168E484
:1034E00076E1DFCF48E456E167E576E1DACF4AE7F7
:1034F00054E16BE474E1D5CF4BE454E16AE774E145
:10350000D0CF81E00E942419BFCF65E082E00E9405
:103510000D1ABACF68E086E0FACF6EE089E0F7CF07
:1035200064E18FE0F4CF67E185E1F1CF88E1EACF94
:1035300062E289E1ECCF83E2E5CFC1E0A6CF9C0156
:10354000AB01509A6BB16E7F7BB17160EFB7F894AD
:10355000CA01880F991F840F951F820F931F82172E
:10356000930741F4EFBF8FE594E00197F1F700C0B6
:1035700000000895D9014D919D0158E07BB90000EC
:1035800000C047FF6BB9440F000000C000C000C07E
:103590006BB900C05A9591F7E2CF83E290E00E94A8
:1035A000A429823289F484E290E00E94A429853023
:1035B00059F485E290E00E94A42991E0863109F057
:1035C00090E0892F8170089580E0FCCFCF93C82FC1
:1035D0006FEF811162E283E290E00E94B8296FEF01
:1035E000C11165E084E290E00E94B8296FEFC1113B
:1035F00066E185E290E0CF910C94B8290895CF93CD
:10360000DF9300D000D0CDB7DEB786E290E00E9415
:10361000A429282F30E050E040E0CA01B9010F9002
:103620000F900F900F90DF91CF91089586E290E078
:103630000C94B82980E00E94E61A60E070E0CB01AB
:103640000E94161B0E941B1D0E94081E81E00C9404
:10365000E61A0E94FE1A0E94CD1A811102C00C9433
:103660001A1B0895CF939C01FB01C281CC2301F169
:1036700082519F45409720F58EEE820F0E94181EC2
:10368000C0E08C2FCF91089581E00E94E30843E0D1
:1036900062E081E00E94E703F3CF81E00E94EE0840
:1036A00043E062E081E00E94E703EBCF82E0F6CFE7
:1036B00080319F4591F321313F45C1F3C1E0E1CF16
:1036C0002031EFE53E0701F382E021313F45E9F289
:1036D000D8CF2FEFFC0120830895CF93DF93EC0127
:1036E00088818238C1F038F4803871F0813881F0F7
:1036F000DF91CF9108958338D9F70E94AA14898366
:103700000E94AD148A83F4CF0E94B0148983F0CF55
:103710000E941714FBCF0E947D14F8CFCF93DF9344
:10372000EC018881823851F138F4803869F08138B1
:10373000B9F0DF91CF9108958338D9F70E94B01482
:10374000482F6A81898108C0D9810E94AD14C82F91
:103750000E94AA144D2F6C2FDF91CF910C945A1612
:1037600089810E9436198981811104C0DF91CF912E
:103770000C948F18DF91CF910C946C198981DF9193
:10378000CF910C94A714EF92FF920F931F93CF93B6
:10379000DF93CDB7DEB72E970FB6F894DEBF0FBE1E
:1037A000CDBF8D839E83162F8D819E81DC01ED918F
:1037B000CD01E150E33108F0F8C0F0E0EF5EF54DE7
:1037C0000C944C29ED81FE81118289E08283612F66
:1037D0008D819E812E960FB6F894DEBF0FBECDBFB1
:1037E000DF91CF911F910F91FF90EF900C943422B5
:1037F000AD81BE8111968C91823099F0833011F1A8
:10380000813081F50E9465210E9452296F8378875B
:1038100089879A87ED81FE81628373838483958390
:10382000D6CF0E94FF1A0E9452296B877C878D8712
:103830009E87AD81BE8112966D937D938D939C93EF
:103840001597C5CFED80FE80B2E0EB0EF11C00E0D5
:10385000802F0E94B011F70181937F010F5F093023
:10386000B9F7B5CF612F8D819E810E94691BAFCFC3
:10387000AD81BE8111968C911197823099F7129685
:103880008D919D910D90BC91A02D89839A83AB83DE
:10389000BC83BC01CD010E9452290E94161B97CF08
:1038A000ED81FE814381628181810E94ED1C982718
:1038B00089279827AD81BE8115969C938E93149786
:1038C00086CFED81FE81248135813227232732275F
:1038D0004381628181810E94061D79CF0E941B1D58
:1038E00076CF0E948E1B73CF0E946D1B70CF0E94FB
:1038F000DA136DCF0E94B11DAD81BE8111968C93FC
:1039000066CF0E94B31D982789279827ED81FE81F5
:10391000928381835CCFAD81BE8113966C911397A6
:1039200070E011968D919C911297AD014C5F5F4FA5
:103930009827892798270E94B61D49CFED81FE81DF
:10394000638170E081819281AF014C5F5F4F982766
:10395000892798270E94DD1D3ACF0E94081E37CF85
:103960000E94DA1CC9CFED81FE81638170E0818104
:103970009281AF014C5F5F4F9827892798270E945B
:10398000541D25CFAD81BE8113966C91139770E0C5
:1039900011968D919C911297AD014C5F5F4F9827C6
:1039A000892798270E947A1D12CF8FEFED81FE8123
:1039B00080830DCF84E0089590E1699FB0011124C8
:1039C00050E0440F551F640F751F90E9899F600DEB
:1039D000711D1124CB01879608950F931F93CF93E8
:1039E000DF930E94DC1C8C010E94A429C82FD0E028
:1039F000DC2FCC27C80101960E94A4299E01282B08
:103A0000C901DF91CF911F910F9108950F931F93DB
:103A1000CF93DF93122F032F0E94DC1CEC01602F49
:103A20000E94B829612FCE010196DF91CF911F919D
:103A30000F910C94B829AF92BF92CF92DF92FF9270
:103A40000F931F93CF93DF93B12CA12C00E065015E
:103A500010E013C0FE01259134914F2D612F802F6E
:103A60000E94061D2296F39488E0F812F3CF88E0B6
:103A7000C80ED11C1F5F193039F0E601CC0FDD1FD5
:103A8000C455DF4FF12CE6CF0F5F88E4A80EB11CC0
:103A90000430E9F6DF91CF911F910F91FF90DF90F5
:103AA000CF90BF90AF900895EF92FF920F931F9326
:103AB000CF93DF93EC018A017C01E60EF71ECE0165
:103AC0008796CE15DF0539F4DF91CF911F910F91C5
:103AD000FF90EF900895C03422E0D20740F40E9496
:103AE000A429F80180830F5F1F4F2196E8CFF801CA
:103AF0001082F9CFCF92DF92EF92FF920F931F9334
:103B0000CF93DF938C016A017C01E60EF71EEC0176
:103B1000CE018796CE15DF0549F4DF91CF911F9135
:103B20000F91FF90EF90DF90CF900895C03422E086
:103B3000D20740F4FE01E01BF10BEC0DFD1D60818E
:103B40000E94B8292196E4CF462F672F843030F4A5
:103B5000793020F4483010F40C94ED1C90E080E0B3
:103B6000089580E1089589E991E00895EF92FF9228
:103B70000F931F93CF93DF93EC018A017C01E60E34
:103B8000F71ECE0189599D4FCE15DF0539F4DF911F
:103B9000CF911F910F91FF90EF900895C93921E0C7
:103BA000D20740F40E94A429F80180830F5F1F4FC1
:103BB0002196E7CFF8011082F9CFCF92DF92EF92F2
:103BC000FF920F931F93CF93DF938C016A017C01C7
:103BD000E60EF71EEC01CE0189599D4FCE15DF058B
:103BE00049F4DF91CF911F910F91FF90EF90DF90FB
:103BF000CF900895C93921E0D20740F4FE01E01BBF
:103C0000F10BEC0DFD1D60810E94B8292196E3CFD8
:103C1000CF93DF93C7E6D2E060E0CE010E94B829DF
:103C20002196C11584E0D807B9F7DF91CF910895A7
:103C3000DF92EF92FF920F931F93CF93DF9300D009
:103C400000D0CDB7DEB7F82E8FE08F1540F08FEFA4
:103C500093E00E94A42907E612E08823C1F00F90A8
:103C60000F900F900F90DF91CF911F910F91FF90C8
:103C7000EF90DF900895011584E0180781F3C801E3
:103C80000E94A429811101C0FA940F5F1F4FF11007
:103C9000F2CF8091200190912101A0912201B09159
:103CA000230189839A83AB83BC83DD24D394780179
:103CB0008FEFE81AF80AC8010E94A42989831A82A2
:103CC000882369F29FEF980F933080F48A83D9821A
:103CD0000E5F1F4FC7010E94A4298B83882309F41C
:103CE000BECFCE0101960E943505E1CF8701F9CF05
:103CF0000F931F93CF93DF93C42FD22FFC018281A8
:103D00008823C9F040934F020E94592190934E029C
:103D100080934D0280E28C0F883008F050C0C7704D
:103D200081E001C0880FCA95EAF7DF91CF911F911A
:103D30000F910C94150610914F02141335C0809109
:103D40004D0290914E020E948521883C910560F5BC
:103D5000C0E2CD0F1D17B9F080E2810F883040F42A
:103D6000177081E001C0880F1A95EAF70E941C06BF
:103D7000C83048F481E09D2F977001C0880F9A9554
:103D8000EAF70E941506802F0E940D06C830B8F48D
:103D9000D77081E001C0880FDA95EAF7DF91CF9103
:103DA0001F910F910C941C0680E28C0F883038F420
:103DB000C77081E001C0880FCA95EAF7EFCFDF91A5
:103DC000CF911F910F9108950F939C01CB01233F39
:103DD0004CE53407A1F190F4283DFCE53F0749F19B
:103DE000293D4CE53407E9F1273D3C45C1F0FC0194
:103DF00082818823E1F110924F0219C0253FFCE532
:103E00003F0719F1263F4CE5340729F1243F3C4593
:103E100071F707E225EE44EE64EF7CE505C006E2AB
:103E200021EE41EE67ED7CE50E94781E80E00F9167
:103E3000089507E225EE45EE68ED7CE5F5CF06E254
:103E400021EE40EE63EF7CE5EFCF06E221EE42EE9D
:103E500065EF7CE5E9CF07E225EE46EE66EF7CE50F
:103E6000E3CF08E221E045EE69ED7CE5DDCF81E0BE
:103E7000DECFCF93DF93EC01FB018281882309F42D
:103E8000C9C0C631FCE5DF07E0F4C2309CE5D907C4
:103E9000F0F00E94130E9093660280936502C63183
:103EA000ECE5DE0720F5C230FCE5DF0798F48091F1
:103EB0006502909166020E94210E0E94600880E0D7
:103EC00006C09E012A5F3C452930310510F3DF9181
:103ED000CF910895FE01E350FC4580916502816019
:103EE000E331F10588F4EC5DF54D0C944C29CA5F83
:103EF000DC45C930D105D8F6C95CD54DFE010C941E
:103F00004C2980916502826080936502D0CF8091B8
:103F100065028460F9CF809165028860F5CF809159
:103F20006602816080936602C2CF809166028260E1
:103F3000F9CF809165028061E7CF80916502806250
:103F4000E3CF809165028064DFCF0E94600880919A
:103F500065028068D9CF809165028C60D5CF809151
:103F600066028360DFCF809165028E7FCDCF809126
:103F700065028D7FC9CF809165028B7FC5CF80910F
:103F80006502877FC1CF809166028E7FCBCF809103
:103F900066028D7FC7CF809165028F7EB5CF8091FD
:103FA00065028F7DB1CF809165028F7BADCF0E947E
:103FB0006008809165028F77A7CF80916502837F2B
:103FC000A3CF809166028C7FADCF8091650282FB8A
:103FD000992790F921E0922790FB82F990FB83F9D1
:103FE00093CF80916602982F909591708E7F892B48
:103FF00090FB81F997CF0E94600890916502892F0C
:1040000097FB87F9805880CF81E00E94A60E4FCFA2
:1040100080E0FBCF81E05BCFCF93DF93EB01863174
:104020009C4511F50E943A0D9A81992399F08A7A5C
:1040300091E009F490E090935002811109C089E267
:104040000E94F40C0E948D0D80E0DF91CF910895C5
:1040500085E3F6CF80915002811104C089E20E946D
:10406000FB0CF0CF85E3FBCF81E0EFCF90935602BE
:10407000809355020895E0915502F09156023097D1
:1040800021F00190F081E02D099480E00895E09105
:104090005502F0915602309721F00280F381E02D15
:1040A000099408952091530230915402281739073A
:1040B00071F09093540280935302E0915502F09175
:1040C0005602309721F00680F781E02D099408957B
:1040D00020915102309152022817390771F09093C4
:1040E000520280935102E0915502F09156023097AE
:1040F00021F00084F185E02D09940895AC019C0124
:104100002E5F3F4F485F5F4F80E02417350709F46B
:104110000895F90191919F019923B9F38F5FF5CF2C
:104120009C01662351F0FC013296285F3F4F81913C
:10413000861729F0E217F307D1F780E0089581E0B0
:1041400008959C01FC0132968FEF90E04191461753
:1041500051F08F3F19F4411101C0892F9F5F9630B4
:10416000A9F78F3F09F40895280F311D87FD3A956F
:10417000F901628308959C01FC013296285F3F4F4C
:104180008191861303C0DF0111971C92E217F30798
:10419000B9F708950C94A1200C94BB20FC01329631
:1041A00086E0DF011D928A95E9F708950895089544
:1041B00008950C94D8208091B602843049F10E9471
:1041C000D92080E00E9440051092570288E190E0DB
:1041D00020E40FB6F894A895809360000FBE20935A
:1041E000600083B7817F846083BF83B7816083BFB2
:1041F0007894889583B78E7F83BF0FB6F894A8957F
:1042000080916000886180936000109260000FBE12
:1042100008950895CF930E94D7200E946F120E94A4
:104220000921C0E08C2F0E94B011811105C0CF5F21
:10423000C930C1F7CF91089581E0FCCF08950C9467
:104240001E210E9460080E943B200E9440050C94A1
:104250001F211F921FB61F9211248F939F93AF931C
:10426000BF9380915702811113C08091AE0290914B
:10427000AF02A091B002B091B1024196A11DB11D53
:104280008093AE029093AF02A093B002B093B102BC
:10429000BF91AF919F918F911F901FBE1F90189556
:1042A00082E084BD93E095BD9AEF97BD80936E0048
:1042B00008952FB7F8948091AE029091AF02A0912B
:1042C000B002B091B1022FBF0895CF93DF9300D019
:1042D00000D0CDB7DEB78FB7F8942091AE02309101
:1042E000AF024091B0025091B10229833A834B83CF
:1042F0005C838FBF69817A818B819C810F900F9045
:104300000F900F90DF91CF9108959C014FB7F894D3
:104310008091AE029091AF02A091B002B091B10233
:104320004FBF821B930B089578941F921FB61F9264
:1043300011248F939F93AF93BF938091AE0290917E
:10434000AF02A091B002B091B1020196A11DB11DC2
:104350008093AE029093AF02A093B002B093B102EB
:10436000BF91AF919F918F911F901FBE1F90189585
:1043700087E797E7909301088093000888E19AE027
:104380000FB6F894A895809360000FBE90936000DC
:10439000FFCF9093C7018093C60108958091630277
:1043A00008959091B602943029F580935802609355
:1043B000590270935A029093E9008FEF9091E800B0
:1043C000815095FD06C095ED9A95F1F70000811199
:1043D000F5CF8091E80085FF0DC050E040E063E03C
:1043E00070E088E592E00E942B248091E8008E77AF
:1043F0008093E8000895BC0184E00C94D121BC01B5
:1044000083E00C94D121CF93DF93D82FC92F81E083
:104410008093E9008FEF9091E800815095FD06C0F0
:1044200095ED9A95F1F700008111F5CF8091E800A4
:1044300085FF16C050E040E068E070E08D2F9C2FB3
:104440000E942B248091E8008E778093E80088E01A
:10445000ED2FFC2FABE5B2E001900D928A95E1F7CC
:10446000DF91CF9108950895CF93603219F520918F
:10447000B6022430F9F4C091E900CF703091EC001D
:10448000232F217030FD20E8C22B22E02093E90089
:104490002091E80020FF0BC050E040E060E270E0B7
:1044A0000E942B248091E8008E778093E800CF70E3
:1044B000C093E900CF9108958091B502811109C0A0
:1044C0000E9402260E945F268091E2008460809311
:1044D000E20008951092B502089508950895089590
:1044E00042E061EC81E00E947E2542E261EC84E0E2
:1044F0000E947E2542E261EC82E00E947E2542E23B
:1045000060EC83E00C947E258091B802893089F1BB
:1045100048F4823009F49EC0833009F459C08130D8
:1045200041F008958A3009F485C08B3009F46BC0DE
:1045300008958091B702813A09F049C08091E8005E
:10454000877F8093E8008091BB029091BC02892B09
:1045500061F468E08BE592E070E00E94C9248091EC
:10456000E8008B778093E800089560E090E080E0B9
:10457000F3CF8091B702813251F58091BB029091C7
:10458000BC028D7F892B19F58091E800877F80938D
:10459000E8008091E80082FF16C09091F3008091BE
:1045A000F200029729F48091F1008B7F813021F491
:1045B0008091F100809363028091E8008B77809373
:1045C000E8000C94B2258091B6028111E2CF0895E3
:1045D0008091B702813AD9F78091BB029091BC02D9
:1045E000892BA9F78091E800877F8093E80080916C
:1045F000E80080FFFCCF80911F018093F100809143
:10460000E8008E77DCCF8091B702813201F780918C
:10461000BB029091BC02892BD1F68091E800877F84
:104620008093E8000E94B2258091B90280931F0117
:104630000C9460088091B702813249F68091E800BD
:10464000877F8093E8000E94B2258091BA02809310
:10465000640208958091B702813A09F0B8CF809141
:10466000E800877F8093E8008091E80080FFFCCF1E
:1046700080916402C2CF84B7877F84BF0FB6F8945D
:10468000A89580916000886180936000109260001E
:104690000FBE80E890E00FB6F8948093610090938D
:1046A00061000FBE0C94CC0E0E9402260E945F2671
:1046B000E2EEF0E080818460808378940E94E728B5
:1046C0000E94E00E85E191E00C943620CF93DF93B9
:1046D000CDB7DEB7A0970FB6F894DEBF0FBECDBF43
:1046E0008091B602853031F48091B602853091F127
:1046F0000E9421210E94EA0E8091B602843009F5C1
:1047000083E08093E9008091E80082FF1AC08091E5
:10471000E80090E085FF09C050E040E060E270E012
:10472000CE0101960E947A2491E08091E8008B7777
:104730008093E800992329F060E2CE0101960E945F
:10474000C31BA0960FB6F894DEBF0FBECDBFDF919E
:10475000CF9108950E94DB208091B402882321F23A
:104760000E940A21882309F4BFCF0E9415240E94C9
:104770006008BACF0C94BC23FC01CB01DA012F2FC7
:10478000332723303105D1F070F42130310509F49D
:1047900047C02230310569F48BE590E029E535E02A
:1047A0002D933C93089521323105E9F022323105F1
:1047B00039F190E080E030E020E0F2CFCF0199279E
:1047C000E13059F08230910559F0E5E5F5E0892BAB
:1047D00081F7849190E09F01E3CFE1E4F5E0F9CF28
:1047E000E3E2F5E0F6CF6330710518F7880F991F03
:1047F000FC01E154FE4F2081318189E090E0D0CF6F
:1048000063307105B0F6FB01EE0FFF1FE754FE4F5A
:10481000208131818A549E4FFC01808190E0C0CF7D
:1048200082E190E024EB35E0BBCF80E189BD82E1FD
:1048300089BD09B400FEFDCF8091D8008F7D8093A3
:10484000D8008091E00082608093E0008091E000D9
:1048500081FDFCCF0895AF92BF92CF92DF92FF927D
:104860000F931F93CF93DF936C01EB018A010E949A
:10487000D125F82E811123C00115110539F0F80159
:1048800080819181C81BD90BC80ED91EB12CA12CD7
:104890002097A9F08091E80085FD22C08091E80072
:1048A0008E778093E80001151105A1F0F801808151
:1048B0009181A80EB91EB182A08285E0F82E8F2DBD
:1048C000DF91CF911F910F91FF90DF90CF90BF901C
:1048D000AF9008950E94D1258823D1F2F82EEFCF12
:1048E000F60181916F018093F1002197FFEFAF1ADC
:1048F000BF0ACECFAF92BF92CF92DF92FF920F93BB
:104900001F93CF93DF936C01EB018A010E94D125A5
:10491000F82E811123C00115110539F0F8018081AD
:104920009181C81BD90BC80ED91EB12CA12C209780
:10493000A9F08091E80085FD22C08091E8008B7786
:104940008093E80001151105A1F0F80180819181A3
:10495000A80EB91EB182A08285E0F82E8F2DDF91BE
:10496000CF911F910F91FF90DF90CF90BF90AF90AC
:1049700008950E94D1258823D1F2F82EEFCF80919F
:10498000F100F60181936F012197FFEFAF1ABF0A83
:10499000CECFFC01CB012091BD023091BE02261783
:1049A000370790F0009729F42091E8002E772093A4
:1049B000E80040E0009751F4411108C08091E80000
:1049C00082FF31C080E00895C901F3CF2091B60283
:1049D0002223A9F12530A9F12091E80023FD2DC063
:1049E0002091E80022FDEACF2091E80020FFE2CFED
:1049F0003091F3002091F200009719F02830310532
:104A000058F041E02830310509F040E02091E800FD
:104A10002E772093E800CECF41914093F10001978B
:104A20002F5F3F4FE9CF8091B602882341F0853058
:104A300041F08091E80083FFC1CF81E0089582E0DA
:104A4000089583E00895FC01CB012091BD023091CF
:104A5000BE022617370790F0009729F42091E8004E
:104A60002E772093E80040E0009751F4411108C0F0
:104A70008091E80082FF32C080E00895C901F3CF41
:104A80002091B6022223B1F12530B1F12091E80046
:104A900023FD2EC02091E80022FDEACF2091E800FE
:104AA00020FFE2CF3091F3002091F200009719F03F
:104AB0002830310558F041E02830310509F040E058
:104AC0002091E8002E772093E800CECF44914093C8
:104AD000F100319601972F5F3F4FE8CF8091B602EA
:104AE000882341F0853041F08091E80083FFC0CFFA
:104AF00081E0089582E0089583E00895982F97302B
:104B000028F08F708093E90081E008959093E90088
:104B1000242F762F50E0981731F07091EC002091FF
:104B2000ED005091F00021FD02C09F5FE8CF309171
:104B3000EB003E7F3093EB003091ED003D7F3093F2
:104B4000ED003091EB0031603093EB007093EC009E
:104B50002093ED005093F0002091EE0027FDE5CF6B
:104B600080E008958091B70287FF13C08091E8002C
:104B700082FF06C08091E8008B778093E80004C034
:104B80008091B6028111F2CF08958091B6028823F8
:104B9000D9F38091E80080FFF8CF8091E8008E770C
:104BA000ECCF2091E4003091E50095E6A901209139
:104BB000EC00822F817020FF06C08091E80080FF0A
:104BC00006C080E008952091E80022FD1AC080917F
:104BD000B602882389F0853089F08091EB0085FD4D
:104BE0000FC02091E4003091E50042175307F9F21D
:104BF0009150E1F684E0089582E0089583E00895FD
:104C000081E008950E9470260E947826E0EEF0E090
:104C1000808181608083E8EDF0E080818F77808300
:104C200019BCA7EDB0E08C918E7F8C9380818F7E34
:104C300080831092B50208950F931F93CF93DF9353
:104C40000E9470260E947826C8EDD0E088818F7778
:104C5000888388818068888388818F7D888319BC58
:104C60001092B6021092B2021092B4021092B302E5
:104C700000EE10E0F80180818B7F80838881816065
:104C8000888342E060E080E00E947E25E1EEF0E073
:104C900080818E7F8083E2EEF0E08081816080837E
:104CA000808188608083F80180818E7F8083888105
:104CB00080618883DF91CF911F910F910895E8ED76
:104CC000F0E080818F7E8083E7EDF0E0808181607D
:104CD000808384E082BF81E08093B5020C941C261F
:104CE000E8EDF0E080818E7F80831092E2000895ED
:104CF0001092DA001092E10008951F920F920FB601
:104D00000F9211242F933F934F935F936F937F9351
:104D10008F939F93AF93BF93EF93FF938091E100A5
:104D200082FF0BC08091E20082FF07C08091E1000A
:104D30008B7F8093E1000E94E6288091DA0080FF5B
:104D400019C08091D80080FF15C08091DA008E7F55
:104D50008093DA008091D90080FF94C080E189BD02
:104D600082E189BD09B400FEFDCF81E08093B602E7
:104D70000E945C228091E10080FF19C08091E200D6
:104D800080FF15C08091E2008E7F8093E2008091C9
:104D9000E20080618093E2008091D800806280937D
:104DA000D80019BC85E08093B6020E946E228091E3
:104DB000E10084FF29C08091E20084FF25C080E1EA
:104DC00089BD82E189BD09B400FEFDCF8091D80084
:104DD0008F7D8093D8008091E1008F7E8093E100E9
:104DE0008091E2008F7E8093E2008091E2008160FA
:104DF0008093E2008091B202882309F449C084E0E4
:104E00008093B6020E946F228091E10083FF29C047
:104E10008091E20083FF25C08091E100877F80932D
:104E2000E10082E08093B6021092B2028091E1002C
:104E30008E7F8093E1008091E2008E7F8093E2007C
:104E40008091E20080618093E20042E060E080E0D7
:104E50000E947E258091F00088608093F0000E947F
:104E60006D22FF91EF91BF91AF919F918F917F91B3
:104E70006F915F914F913F912F910F900FBE0F90C7
:104E80001F90189519BC1092B6020E946A2272CF28
:104E90008091E30087FD02C081E0B2CF83E0B0CF14
:104EA0001F920F920FB60F9211242F933F934F939F
:104EB0005F936F937F938F939F93AF93BF93CF93A2
:104EC000DF93EF93FF93D091E900DF708091EC00C6
:104ED000C82FC17080FDC0E81092E9008091F000F9
:104EE000877F8093F00078940E9494271092E900C5
:104EF0008091F00088608093F000CD2BCF70C0933C
:104F0000E900FF91EF91DF91CF91BF91AF919F9118
:104F10008F917F916F915F914F913F912F910F9062
:104F20000FBE0F901F9018951F93CF93DF93CDB7AF
:104F3000DEB7AA970FB6F894DEBF0FBECDBF87EBE2
:104F400092E0FC0101962091F100208322E08F3B4A
:104F50009207B9F70E9484228091E80083FF1EC166
:104F60008091B7029091B8029A3008F017C1E92FEA
:104F7000F0E0E05CF54D0C944C29803899F08238D3
:104F800009F00CC18091BB028F70873008F006C118
:104F90008093E9008091EB0085FB882780F91092CF
:104FA000E90006C08091B3029091B4029111826031
:104FB0009091E800977F9093E8008093F100109221
:104FC000F1008091E8008E77E5C0882309F4D3C012
:104FD000823009F0E3C08091B9028111D6C080917E
:104FE000BB028F702FEF280F263008F0D7C08093B8
:104FF000E9002091EB0020FFC8C0933031F480918C
:10500000EB0080628093EB00C0C09091EB00906158
:105010009093EB0021E030E001C0220F8A95EAF77F
:105020002093EA001092EA008091EB008860EACFBA
:105030008111B4C01091B9021F778091E30080788C
:10504000812B8093E3008091E800877F8093E800C4
:105050000E94B2258091E80080FFFCCF8091E300A0
:1050600080688093E30082E0111183E08093B602B0
:1050700095C08058823008F091C08091B90290911B
:10508000BA028C3D23E09207A1F583E08A838AE28D
:1050900089834FB7F894DE01139620E03EE051E299
:1050A000E32FF0E050935700E49120FF03C0E29516
:1050B000EF703F5FEF708E2F90E0EA30C0F0C79640
:1050C0008D939D932F5F243159F74FBF8091E80056
:1050D000877F8093E8006AE270E0CE0101960E942B
:1050E000C9248091E8008B778093E80057C0C09670
:1050F000E7CF6091BB027091BC02AE014F5F5F4F82
:105100000E94BA23BC01892B09F448C08091E800B1
:10511000877F8093E80089819A810E942325E1CFCF
:105120008038E1F58091E800877F8093E8008091E6
:10513000B2028093F10045CF811130C09091B90245
:10514000923060F58091E800877F8093E80090932B
:10515000B2020E94B2258091B202882311F084E04D
:1051600005C08091E30087FDFACF81E08093B6020D
:105170000E94702213C08091B902813079F481E0DD
:10518000933009F080E08093B4021092E90080919E
:10519000E800877F8093E8000E94B2258091E800B4
:1051A00083FF0AC08091E800877F8093E8008091A8
:1051B000EB0080628093EB00AA960FB6F894DEBFF6
:1051C0000FBECDBFDF91CF911F9108950895CF936A
:1051D0008091B6028823A1F0C091E900CF70909130
:1051E000EC00892F817090FD80E8C82B1092E900B7
:1051F0008091E80083FD0E949427CF70C093E9005E
:10520000CF910895AA1BBB1B51E107C0AA1FBB1F6A
:10521000A617B70710F0A61BB70B881F991F5A9542
:10522000A9F780959095BC01CD01089597FB072EB5
:1052300016F4009407D077FD09D00E94022907FCDC
:1052400005D03EF4909581959F4F08957095619596
:105250007F4F0895A1E21A2EAA1BBB1BFD010DC0B2
:10526000AA1FBB1FEE1FFF1FA217B307E407F50716
:1052700020F0A21BB30BE40BF50B661F771F881FF2
:10528000991F1A9469F760957095809590959B0188
:10529000AC01BD01CF010895EE0FFF1F0590F49101
:1052A000E02D09946927962769277827872778278B
:1052B00008950E946129332312F48A1B9B0B0C94DE
:1052C0007229A29FB001B39FC001A39F700D811DE1
:1052D0001124911DB29F700D811D1124911D0895FF
:1052E0000E946129B7FF0895821B930B08950E94C5
:1052F0006129A59F900DB49F900DA49F800D911DD5
:1053000011240895B7FF0C9477290E947729821BF6
:10531000930B0895FC014150504030F00190061667
:10532000D1F73197CF010895882799270895FB0178
:10533000DC0104C08D910190801921F4415050404E
:10534000C8F7881B990B0895F999FECF92BD81BDCE
:10535000F89A992780B50895A6E1B0E044E050E0BE
:105360000C94DE29A8E1B0E042E050E00C94DE2984
:10537000262FF999FECF92BD81BDF89A019700B40E
:10538000021639F01FBA20BD0FB6F894FA9AF99AAE
:105390000FBE08950396272F0E94B9290E94B829AD
:1053A000252F0E94B929242F0C94B9290196272F63
:1053B0000E94B9290C94B829DC01CB01FC01F999B0
:1053C000FECF06C0F2BDE1BDF89A319600B40D9251
:1053D00041505040B8F70895F894FFCF580658064A
:1053E000B206B206040785068506850620078907EA
:1053F00098079807F40785068506FD074D1A541A85
:10540000591A5E1A631A681A6D1A721A771A7C1A78
:10541000811A851A8A1A8D1A901A931A961A981A4E
:105420009B1AE21BF81B381C501C611C6E1C711C63
:10543000741C771CD51CD51C7A1C811C8B1C9E1CD3
:10544000AD1CB01CB31CC21C811F871F8B1F991F72
:105450009D1FA11FA51FAB1FB31FB71FBB1FBF1FE2
:10546000CB1FCF1FD31FD71FDD1FFB1FE51F8F1FB4
:10547000951FC31FC71FAF1FE11FF11F0420082086
:10548000BD27E527CE28E527CE2818283928CE289D
:0454900090289C289C
:105494002002010102001000101001191A1B1C1D2A
:1054A4001E1F202122CE2103223322FF21FB2101B2
:1054B40000000000E200E900EA00B500B600B70011
:1054C400CD008301CC008A019201940121022302C0
:1054D40024022502260227022A02B300B4006F0028
:1054E4007000E200E900EA00B500B600B700CD00A4
:1054F4008301CC008A019201940121022302240237
:105504002502260227022A02B300B4006F007000AD
:105514009392946697C6313691F43435F6F7F533A1
:1055240032000102020202060606090909090909F4
:105534000F0F0F0F0F0F1515151819191919191920
:105544001919191923244022321A06C605E8056BD5
:06555400058405A405001A
:00000001FF
